{
  "contractName": "SimpleBank",
  "abi": [
    {
      "anonymous": false,
      "inputs": [
        {
          "indexed": false,
          "internalType": "address",
          "name": "",
          "type": "address"
        },
        {
          "indexed": false,
          "internalType": "uint256",
          "name": "",
          "type": "uint256"
        }
      ],
      "name": "LogDepositMade",
      "type": "event"
    },
    {
      "anonymous": false,
      "inputs": [
        {
          "indexed": false,
          "internalType": "address",
          "name": "",
          "type": "address"
        }
      ],
      "name": "LogEnrolled",
      "type": "event"
    },
    {
      "anonymous": false,
      "inputs": [],
      "name": "LogWithdrawal",
      "type": "event"
    },
    {
      "payable": true,
      "stateMutability": "payable",
      "type": "fallback"
    },
    {
      "constant": true,
      "inputs": [
        {
          "internalType": "address",
          "name": "",
          "type": "address"
        }
      ],
      "name": "enrolled",
      "outputs": [
        {
          "internalType": "bool",
          "name": "",
          "type": "bool"
        }
      ],
      "payable": false,
      "stateMutability": "view",
      "type": "function"
    },
    {
      "constant": true,
      "inputs": [],
      "name": "owner",
      "outputs": [
        {
          "internalType": "address",
          "name": "",
          "type": "address"
        }
      ],
      "payable": false,
      "stateMutability": "view",
      "type": "function"
    },
    {
      "constant": false,
      "inputs": [],
      "name": "getBalance",
      "outputs": [
        {
          "internalType": "uint256",
          "name": "",
          "type": "uint256"
        }
      ],
      "payable": false,
      "stateMutability": "nonpayable",
      "type": "function"
    },
    {
      "constant": false,
      "inputs": [],
      "name": "enroll",
      "outputs": [
        {
          "internalType": "bool",
          "name": "",
          "type": "bool"
        }
      ],
      "payable": false,
      "stateMutability": "nonpayable",
      "type": "function"
    },
    {
      "constant": false,
      "inputs": [
        {
          "internalType": "address",
          "name": "addr",
          "type": "address"
        },
        {
          "internalType": "uint256",
          "name": "amt",
          "type": "uint256"
        }
      ],
      "name": "deposit",
      "outputs": [
        {
          "internalType": "uint256",
          "name": "",
          "type": "uint256"
        }
      ],
      "payable": true,
      "stateMutability": "payable",
      "type": "function"
    },
    {
      "constant": false,
      "inputs": [
        {
          "internalType": "uint256",
          "name": "withdrawAmount",
          "type": "uint256"
        }
      ],
      "name": "withdraw",
      "outputs": [
        {
          "internalType": "uint256",
          "name": "",
          "type": "uint256"
        }
      ],
      "payable": false,
      "stateMutability": "nonpayable",
      "type": "function"
    }
  ],
  "bytecode": "0x608060405233600260006101000a81548173ffffffffffffffffffffffffffffffffffffffff021916908373ffffffffffffffffffffffffffffffffffffffff16021790555034801561005157600080fd5b50610548806100616000396000f3fe6080604052600436106100555760003560e01c806310eb0e0e1461005a57806312065fe0146100c35780632e1a7d4d146100ee57806347e7ef241461013d5780638da5cb5b1461019f578063e65f2a7e146101f6575b600080fd5b34801561006657600080fd5b506100a96004803603602081101561007d57600080fd5b81019080803573ffffffffffffffffffffffffffffffffffffffff169060200190929190505050610225565b604051808215151515815260200191505060405180910390f35b3480156100cf57600080fd5b506100d8610245565b6040518082815260200191505060405180910390f35b3480156100fa57600080fd5b506101276004803603602081101561011157600080fd5b810190808035906020019092919050505061024a565b6040518082815260200191505060405180910390f35b6101896004803603604081101561015357600080fd5b81019080803573ffffffffffffffffffffffffffffffffffffffff16906020019092919080359060200190929190505050610251565b6040518082815260200191505060405180910390f35b3480156101ab57600080fd5b506101b46103df565b604051808273ffffffffffffffffffffffffffffffffffffffff1673ffffffffffffffffffffffffffffffffffffffff16815260200191505060405180910390f35b34801561020257600080fd5b5061020b610405565b604051808215151515815260200191505060405180910390f35b60016020528060005260406000206000915054906101000a900460ff1681565b600090565b6000919050565b600060018060003373ffffffffffffffffffffffffffffffffffffffff1673ffffffffffffffffffffffffffffffffffffffff16815260200190815260200160002060006101000a81548160ff021916908315150217905550346000803373ffffffffffffffffffffffffffffffffffffffff1673ffffffffffffffffffffffffffffffffffffffff16815260200190815260200160002054016000803373ffffffffffffffffffffffffffffffffffffffff1673ffffffffffffffffffffffffffffffffffffffff168152602001908152602001600020819055507fa8126f7572bb1fdeae5b5aa9ec126438b91f658a07873f009d041ae690f3a1933334604051808373ffffffffffffffffffffffffffffffffffffffff1673ffffffffffffffffffffffffffffffffffffffff1681526020018281526020019250505060405180910390a16000803373ffffffffffffffffffffffffffffffffffffffff1673ffffffffffffffffffffffffffffffffffffffff16815260200190815260200160002054905092915050565b600260009054906101000a900473ffffffffffffffffffffffffffffffffffffffff1681565b600060018060003373ffffffffffffffffffffffffffffffffffffffff1673ffffffffffffffffffffffffffffffffffffffff16815260200190815260200160002060006101000a81548160ff0219169083151502179055507f990c442e6adb818b8fa7db3cf1023decd07f7b66e5306928c7ed527d974192bb33604051808273ffffffffffffffffffffffffffffffffffffffff1673ffffffffffffffffffffffffffffffffffffffff16815260200191505060405180910390a1600160003373ffffffffffffffffffffffffffffffffffffffff1673ffffffffffffffffffffffffffffffffffffffff16815260200190815260200160002060009054906101000a900460ff1690509056fea265627a7a72315820e388104d4a99c00448a0e63faec6dc135947e9b025fbdf928231ddf42192939064736f6c63430005100032",
  "source": "/*\n * This exercise has been updated to use Solidity version 0.8.5\n * See the latest Solidity updates at\n * https://solidity.readthedocs.io/en/latest/080-breaking-changes.html\n */\n// SPDX-License-Identifier: MIT\npragma solidity >=0.5.16 <0.9.0;\n\ncontract SimpleBank {\n\n    /* State variables\n     */\n    \n    \n    // Fill in the visibility keyword. \n    // Hint: We want to protect our users balance from other contracts\n    mapping (address => uint) private balances ;\n    \n    // Fill in the visibility keyword\n    // Hint: We want to create a getter function and allow contracts to be able\n    //       to see if a user is enrolled.\n    mapping (address => bool) public enrolled;\n\n    // Let's make sure everyone knows who owns the bank, yes, fill in the\n    // appropriate visilibility keyword\n    address public owner = msg.sender;\n    \n    /* Events - publicize actions to external listeners\n     */\n    \n    // Add an argument for this event, an accountAddress\n    event LogEnrolled(address);\n\n    // Add 2 arguments for this event, an accountAddress and an amount\n    event LogDepositMade(address, uint);\n\n    // Create an event called LogWithdrawal\n    // Hint: it should take 3 arguments: an accountAddress, withdrawAmount and a newBalance \n    event LogWithdrawal();\n\n    /* Functions\n     */\n\n    // Fallback function - Called if other functions don't match call or\n    // sent ether without data\n    // Typically, called when invalid data is sent\n    // Added so ether sent to this contract is reverted if the contract fails\n    // otherwise, the sender's money is transferred to contract\n    function () external payable {\n        revert();\n    }\n\n    /// @notice Get balance\n    /// @return The balance of the user\n    function getBalance() public returns (uint) {\n      // 1. A SPECIAL KEYWORD prevents function from editing state variables;\n      //    allows function to run locally/off blockchain\n      // 2. Get the balance of the sender of this transaction\n    }\n\n    /// @notice Enroll a customer with the bank\n    /// @return The users enrolled status\n    // Emit the appropriate event\n    function enroll() public returns (bool){\n      // 1. enroll of the sender of this transaction\n      enrolled[msg.sender] = true;\n\n      emit LogEnrolled(msg.sender);\n\n      return enrolled[msg.sender];\n    }\n\n    /// @notice Deposit ether into bank\n    /// @return The balance of the user after the deposit is made\n    function deposit(address addr, uint amt) public payable returns (uint) {\n      enrolled[msg.sender] = true;\n      balances[msg.sender] = balances[msg.sender] + msg.value;\n      emit LogDepositMade(msg.sender, msg.value);\n      return balances[msg.sender];\n      // 1. Add the appropriate keyword so that this function can receive ether\n    \n      // 2. Users should be enrolled before they can make deposits\n\n      // 3. Add the amount to the user's balance. Hint: the amount can be\n      //    accessed from of the global variable `msg`\n\n      // 4. Emit the appropriate event associated with this function\n\n      // 5. return the balance of sndr of this transaction\n    }\n\n    /// @notice Withdraw ether from bank\n    /// @dev This does not return any excess ether sent to it\n    /// @param withdrawAmount amount you want to withdraw\n    /// @return The balance remaining for the user\n    function withdraw(uint withdrawAmount) public returns (uint) {\n      // If the sender's balance is at least the amount they want to withdraw,\n      // Subtract the amount from the sender's balance, and try to send that amount of ether\n      // to the user attempting to withdraw. \n      // return the user's balance.\n\n      // 1. Use a require expression to guard/ensure sender has enough funds\n\n      // 2. Transfer Eth to the sender and decrement the withdrawal amount from\n      //    sender's balance\n\n      // 3. Emit the appropriate event for this message\n    }\n}\n",
  "sourcePath": "/Users/afolabi/projects/bootcamp/simple-bank-exercise-garantor/contracts/SimpleBank.sol",
  "compiler": {
    "name": "solc",
    "version": "0.5.16+commit.9c3226ce.Emscripten.clang"
  },
  "schemaVersion": "3.4.1",
  "updatedAt": "2021-10-06T10:19:12.800Z",
  "devdoc": {
    "methods": {
      "deposit(address,uint256)": {
        "return": "The balance of the user after the deposit is made"
      },
      "enroll()": {
        "return": "The users enrolled status"
      },
      "getBalance()": {
        "return": "The balance of the user"
      },
      "withdraw(uint256)": {
        "details": "This does not return any excess ether sent to it",
        "params": {
          "withdrawAmount": "amount you want to withdraw"
        },
        "return": "The balance remaining for the user"
      }
    }
  },
  "userdoc": {
    "methods": {
      "deposit(address,uint256)": {
        "notice": "Deposit ether into bank"
      },
      "enroll()": {
        "notice": "Enroll a customer with the bank"
      },
      "getBalance()": {
        "notice": "Get balance"
      },
      "withdraw(uint256)": {
        "notice": "Withdraw ether from bank"
      }
    }
  }
}